:100000006F00B01813000000130000001300000080
:100010001300000013000000130000001300000094
:100020001300000013000000130000001300000084
:08003000130000007300100032
:100038006FF09FFC000000006F0000166F000016B4
:1000480000000000000000000000000000000000A8
:100058000000000000000000000000000000000098
:100068006F00F00C000000006F00900C0000000012
:100078006F00300C6F00100C6F00F00B6F00D00B8E
:100088006F00B00B6F00900B6F00700B6F00500B80
:100098006F00300B6F00100B6F00F00A6F00D00A72
:1000A8006F00B00A6F00900A6F00700A6F00500A64
:1000B8006F00300A6F00100A6F00F009000000009E
:1000C8000000000000000000000000006F00D008E1
:1000D8006F00B0086F00C04A6F0070086F005008CA
:1000E8006F0030086F0010086F00F0076F00D0072E
:1000F8006F00B0076F0090076F0070076F00500720
:100108006F0030076F0010076F00F0066F00D00611
:100118006F00B0066F0090066F0070066F00500603
:1001280000000000000000000000000000000000C7
:080138000000000000000000BF
:10014000397101436EC619A0397141536AC866CA34
:1001500062CC5ECE19A0397101535AD056D252D416
:100160004ED64AD826DA22DC06DE3301614082828E
:1001700041114AC026C222C406C68282B24D410144
:10018000024D924C224CB24B4101024B924A224A00
:10019000B2494101024992442244B2404101828065
:1001A0007300203001A0EFF21FFBAA892E8993046F
:1001B00000000144634A24014A85EF30F040AA85DB
:1001C0002685EF304017D1B793172400CE978C4384
:1001D00026850504EF20905FAA84E9BFAA8701471E
:1001E0009107634AB70063D3050081458A05AA9544
:1001F00023AEC5FE82809443050723AED7FECDB75C
:10020000EFF21FF44111F521B74A0000EF10004949
:10021000EF102041EF10002EEF10C02403A58A2319
:10022000B7490000EF10203903A5C923EF10003CA7
:10023000EF00D06FEF00F062B747000037470000D3
:100240000324472403A6072493868188A285328548
:10025000352DB747000003A68724B747000003A544
:10026000C7249386C18BA2851525B747000083A7B5
:1002700007253EC2B747000003AD4725B74700003A
:1002800083AD8725B747000083ACC7251385C18799
:100290009384C187EF001076844092452685EF3025
:1002A000A0341384C1871389418401CD4840EA8575
:1002B000EF30803319C50844EA85EF30E03263102F
:1002C000051E2320090003C6818483260900938725
:1002D0008184138781816305D60005462300C7000A
:1002E0002380D700834707008DC39387018F1306B0
:1002F000000090C3D0C390C7D0C790CB90D7D0D7C1
:1003000090DBD0DB90DF230007006385062626857F
:10031000EE85EF30602D93840184630B0524032A5E
:100320004400E6855285EF30202C63030524032921
:100330008400E6854A85EF30202B3335A0002380EA
:10034000A400E6854A85EF30202A6305052223A60E
:1003500001849387C181CC43938481838CC323A27E
:100360004701DC40528523A224019CC0B74700000E
:1003700003A90726EF30606793878182CC432AC6A2
:100380008843138A0183EF30903083254A002AC4C2
:1003900003250A00EF30B02F22473246CA86BA85BD
:1003A000F126AA854840EF2070428C4048C0C840E2
:1003B000EF30A06393878182CC432AC48843EF3017
:1003C000102D83254A00AA8403250A00EF30302C23
:1003D0002246CA86A685592E0C4493848185EF2037
:1003E000F03E5C402A8608C49CC023AAA1841385E1
:1003F000018FA945138A018FD5339040130A8A02D1
:10040000A9455285E13B37070020032707021389DE
:100410004180938481805DC7A9451385018F613335
:10042000B7070080138681883D8D93050000BD29A4
:10043000AA8503250900EF2070392320A900A945CA
:1004400052859533B70700801386C18B9305000052
:100450003D8DA929AA858840374A0000EF30E05831
:100460000327090083A7C92388C03A85BE853AC4FB
:100470003EC6EF30201D22476355A006B247232019
:10048000F9009C40032A4A263E85D2853EC4EF30BF
:10049000C023A2476352050623A0440185A8138701
:1004A0000185835707009306401F8507C207C18354
:1004B0002310F700E3F9F6E085472320F900231025
:1004C000070011B51385018F9545F139AA850325DC
:1004D0000900EF20B02F2320A90095455285E13176
:1004E00095BF83274A263A85BE853EC4EF30E01D7E
:1004F000E35905F8A24761B737470000032A87266A
:100500003E85D285EF300014E348A0F803250900AA
:10051000EF10600A8840EF10600D13054006EF10E1
:10052000401A18409387018798C303A781808D459F
:1005300013850187D8C303A7418098C7EF00B05344
:10054000B1B31307000023A0070023AAE18403A589
:100550008A2323ACE18483A7C9239384818023A2C7
:10056000A1809CC0EF1020058840EF10200855BFE7
:10057000238004009387C18498439306C05D0507D8
:10058000E301D7FC98C371BF37350140854513059A
:1005900005C0EF00901985476318F5049387018320
:1005A0009843D0439306170033B7E600329794C3BD
:1005B000D8C31306803E6392C60205E31387818287
:1005C00014434C4313861600B336D600AE9654C37C
:1005D00010C38146014794C3D8C3373501408545D0
:1005E000130505C0EF00301573002030B717024027
:1005F0009843B706FFF841111367170098C3D84313
:1006000037060200758FD8C39843B706F7FEFD166C
:10061000758F98C39843B706FCFFFD16758F98C376
:10062000D843B70681FFFD16758FD8C337079F00E3
:1006300098C702C402C69843C166558F98C3B716BF
:100640000240130700509C42F18F3EC6A247850727
:100650003EC4B24781E7A247E397E7FEB7170240DF
:100660009C431397E7006354070885473EC632470B
:100670008547631CF706B72702409843B706C1FFBA
:10068000FD161367070198C39843719B98C398435D
:100690001367270098C3B7170240D843D8C3D8437D
:1006A000D8C3D84313670740D8C3D843758FD8C37E
:1006B000D843B7061D00558FD8C39843B70600012D
:1006C000558F98C3984393166700E3DD06FED84321
:1006D000B7160240719BD8C3D84313672700D8C30D
:1006E0002147DC42B18BE39EE7FE4101828002C6D6
:1006F000BDBFB7160240DC421146B18B1387C180E3
:100700006385C70021466389C702B7177A009387BC
:1007100007201CC3B7170240DC43918393F6F70010
:10072000B707002093870700B69783C607001C43CE
:10073000B3D7D7001CC38280DC42D042C983BD8BB3
:100740009315F600890763C90500B7163D00938627
:100750000690B387D70275BFD4421396E600E346EE
:1007600006FEB7167A0093860620E5B739714ADA95
:100770002A89368506DE22DC4ED852D656D45AD285
:100780005ED062CE66CC6ACA6EC8328BAE89EF305C
:10079000F001B747000003A6072783A64727138465
:1007A0000196EF105043B74700002A86AE8603A596
:1007B000872783A5C727EF10C06610445444B74766
:1007C0000000AE8A83A5C72610C054C02A8A4E8571
:1007D00032C436C6EF203078CA85EF20207FEF3054
:1007E000E07C2246B24608C44CC4EF20400A138481
:1007F000019418445C442A8918C05CC05A85AE89AB
:10080000EF30C07A08C44CC413840195032D8400D2
:10081000832DC4002A8BAE8B2320A4012322B40194
:100820004A86CE865285D685EF00B06C2A8CAE8C77
:100830002A86AE865285D685EF10A05E6A86EE8641
:10084000EF1070392A8AAE8A6286E6864A85CE859E
:10085000EF10205D5A86DE86EF10F0372A86AE86CE
:100860005285D685EF00F06808C44CC4EF30C07ED6
:10087000F25062545259C259325AA25A125B825BE8
:10088000724CE24C524DC24D2161828093070000B0
:1008900088C2CCC290C6DCC69CCADCCA9CCEDCCE68
:1008A0009CD2DCD29CD6DCD69CDA8280EFF2BF8A66
:1008B000AE87AA853E853284EF3020130C4008CCE9
:1008C000AA84EF2050694C40AA8948C42685EF20AD
:1008D00090680C48EF20806F4C4C2A8A08C8268507
:1008E000EF30A0100C44EF2010672A8948C8D28549
:1008F0004E85EF20A06DCA85EF20406DB747000000
:1009000044CC83A4072808D82A89A685EF209053D1
:100910006354A00004D819A8B747000083A447284F
:100920004A85A685EF20705AE34605FE08586FF009
:10093000DF8501A001A001A001A001A001A001A0EC
:1009400001A001A001A001A001A001A001A001A09F
:1009500001A001A001A001A001A001A001A001A08F
:1009600001A001A001A001A001A001A001A001A07F
:1009700001A001A001A001A001A001A001A001A06F
:1009800001A001A001A001A001A097010020938176
:1009900061E9174100201301E166174500001305C6
:1009A00065B397F5FF1F9385E5651386818163FA2B
:1009B000C5008322050023A0550011059105E3EA37
:1009C000C5FE13858181938501976377B500232048
:1009D00005001105E36DB5FE9302800873A0023097
:1009E00097F2FFFF9382826593E212007390523078
:1009F000EFF0DFBF970200009382C2807390123441
:100A0000730020301C4161773D0794517D8F9C45D8
:100A1000D58F9449D58FD449D58F944DD58FD44D4A
:100A2000D58FD451D58F9455D58FD98F1CC1DC4526
:100A30005CC19C411CC5DC415CC582801C4189C5F0
:100A400093E717001CC1828041677917F98FDDBFDA
:100A50009C4513F7070113F8F70001C7D841336825
:100A6000E80083D5050013F7F50F39C31841814617
:100A7000854E3D4F930F800293028004214E3396A2
:100A8000DE00B3F8C50063111603939826003313F4
:100A90001F011343F3FF3377E300B318180133E763
:100AA000E800639FF70550C98506E39AC6FD18C1A3
:100AB0001307F00F6375B70454412146854E3D4F2F
:100AC000930F800293028004414EB398CE0033F717
:100AD00015016392E8021317260001173313EF0084
:100AE0001343F3FFB376D3003317E800D98E639D29
:100AF000F701232A15010506E319C6FD54C18280BA
:100B0000E39457FA10C94DB7E39757FE2328150110
:100B1000DDB719C20CC982804CC9828023AEA18482
:100B200082809387C18594430347050089E6834704
:100B30002500920731A8944305466391C604834774
:100B400025000346150092076314D60093E707F8C3
:100B5000B7E600E093F7F70FBA962380F640854694
:100B6000935757003397E6005441ADC69387070467
:100B70008A07B7E600E0B69798C382808C4389461F
:100B80006393D50283461500834725006365D6002D
:100B90008A06B69779BF9386E6038A06B69793F7D7
:100BA000F70F920765B790438D46631ED6008346C4
:100BB0001500834725006364D6008606D9BF938657
:100BC000C6078606E1BF94439147E39AF6F8834748
:100BD000150085B7B7E600E093870706B042C14528
:100BE0008A07ACC2B69798C3B0C28280371702405A
:100BF0005C439146B18B6385D700A1466386D706D7
:100C0000B7177A00938707201CC1371602405C4251
:100C100037070020130707019183BD8BBA9783C65E
:100C200007001C41B3D7D7005CC15442A1829D8A02
:100C3000BA9683C60600B3D6D70014C55442AD8217
:100C40009D8A369703470700B3D7E7005CC5584233
:100C5000398393763700138701813697034707005E
:100C6000B3D7E7021CC982805C435443C983BD8B60
:100C70001396F6008907634D0600374702400327A5
:100C80000780418B19CB37177A001307072011A86B
:100C900058439316E700E3D806FE37173D001307C5
:100CA0000790B387E7028DB799C5371702405C4BB1
:100CB0005D8D48CB8280B7170240D84B1345F5FFB6
:100CC000798DC8CB828099C5371702401C4F5D8D46
:100CD00008CF8280B7170240984F1345F5FF798DF2
:100CE00088CF828099C5371702405C4F5D8D48CF11
:100CF0008280B7170240D84F1345F5FF798DC8CFD2
:100D000082808357050037370140130707C0C207A9
:100D1000C1836300E50237070040630CE500130759
:100D200007406308E5003717004013070780631783
:100D3000E50003D7250093F7F7F8D98F03D76500AF
:100D400093F7F7CFC207C183D98F2310F50083D75C
:100D500045002316F50283D705002314F502B737A3
:100D60000140938707C06316F50083C785002318E9
:100D7000F5028547231AF50082808357050203D6C2
:100D8000050003D82500C207C183F99BC207C183B0
:100D90002310F5028357050283564500035785014A
:100DA000C207C183420741831377C7F8518F03D627
:100DB0008500F59BC20633660601D18F37360140A8
:100DC000130606C0C1826313C50203D6A500DD9BCE
:100DD00003D8E500D18F03D64500ED9B93F6F6CFFF
:100DE000D18F03D6C50033660601D18E2312D500FC
:100DF000231CE50003D76500231AE5022310F50242
:100E000082808357050265771307F7CFC207C18336
:100E1000BD9BC207C1832310F50283570502835689
:100E2000450003D88500C207139606018356850145
:100E3000C18393F7F7FD758F83D605004182A20623
:100E4000558F83D6250042074183B3E606019206FB
:100E5000D58FB7360140C207938606C0C1836311A0
:100E6000D50483D6A50093F7F7F703D8C5009206FB
:100E7000D58F83D64500C207C183920693F7F7FB4F
:100E8000D58FFD769386F63FF18E03D6E500C20737
:100E9000C183336606010A06D18E1396060141828C
:100EA0002312C500231CE50003D76500231CE502BF
:100EB0002310F50282802310050023110500231260
:100EC0000500231305002314050023150500231630
:100ED00005002317050082808357050091C593E71D
:100EE00017002310F5008280C207C183F99BC20757
:100EF000C183C5BF8357C50009C6DD8D2316B50064
:100F0000828093C5F5FFFD8DD5BF83578500C2074D
:100F1000C183E19BC207C1832314F5008280231A99
:100F2000B5028280231CB5028280035505016D8DB8
:100F30003335A000828093C5F5FFC205C181231817
:100F4000B5008280EFF2CFA283560501F577FD1739
:100F5000F58F83D6650003D7C5007971D58F231827
:100F6000F5008356C500FD779387379FF58F83D6AD
:100F700045002A842EC6D58F83D68500D58F83D68B
:100F8000A500D58F2316F50083574501C207C183FD
:100F900093F7F7CFD98F231AF50068088139B7473F
:100FA000014093870780B245631DF404A25783561E
:100FB000C4006547B387E702C206C186984163D47F
:100FC000060406070356C4004206B3D7E702130718
:100FD00040064186B3D6E702B3F7E70292066356AE
:100FE00006028E0793872703B3D7E70213F777002C
:100FF000B367D700C207C1832314F40045616FF0C3
:101000006F9992576DB70A0775BF920793872703A9
:10101000B3D7E702BD8BD58FF1BF81C98357C50018
:101020000967D98F2316F50082800357C500F97729
:10103000FD17F98FC5BF8357450109C6DD8D231AFA
:10104000B500828093C5F5FFFD8DD5BF93F5F51FE3
:101050002312B5008280035505006D8D3335A00045
:101060008280EFF2EF905D7185451165A939854564
:101070001145913937140140E1473EC88D4493072B
:1010800000202C00130504802314F10026C6EFF085
:101090003F9C91473EC82C009307004013050480F5
:1010A0002314F10026C6EFF0BF9AF16737440140E0
:1010B000938707203ECA4C08B7070C00130504802D
:1010C0003ECE02CC23100102B53D85450545E93EE3
:1010D00005461305048093050004B13F930744803F
:1010E0003ED2938791813ED4930700083EDC85472A
:1010F0003ED8B704024093070002BEC24C10856779
:1011000013858405BEC402DE02DA82C002D682C61E
:10111000EFF05F8F138584058545EFF03F9285459D
:1011200013050480DD3D61616FF0CF86EFF24F84DF
:101130005D71854537050200753685451145613677
:1011400037140140E1473EC88D4491472C001305F8
:1011500004802314F10026C6EFF09F8F91473EC80C
:101160002C00A147130504802314F10026C6EFF0DC
:101170003F8EF16737440040938707203ECA4C08F2
:10118000B7070C00130504403ECE02CC2310010229
:10119000553B85450545093E054613050440930525
:1011A0000004513D930744403ED2938741863ED48C
:1011B000930700083EDCB1473ED8B70402409307CE
:1011C0000002BEC24C1085671385C406BEC402DE91
:1011D00002DA82C002D682C6EFF0DF821385C4062F
:1011E0008545EFF0BF858545130504403D356161B8
:1011F0006FE05FFA83C6518603C74186A206D98E87
:1012000003C761864207D98E03C7718693874186DB
:101210006207558F18C183C6570003C74700A2064F
:10122000D98E03C767004207D98E03C777006207CC
:10123000558F58C103C7970083C687002207D98EF0
:1012400003C7A70083C7B7004207558FE207D98FAE
:101250001CC58280EFE2DFF137440140AA85130507
:101260000480ED3313040480930500082285E533E0
:1012700065DD6FE03FF2EFE21FEE8A052A84330955
:10128000B5009149631424016FE03FF08144B30736
:10129000940003C507008504753FE39A34FF1104E9
:1012A000D5B7EFE2FFEC411185452145EFF0BFA135
:1012B000D147371401403EC68D473EC44C009307CA
:1012C0000010130504C02312F100EFF06FF893072C
:1012D00000204C00130504C02312F100EFF04FF77B
:1012E000130504C0054693050010EFF09F820546E4
:1012F00093050020130504C0EFF0BF8141016FE0AA
:101300007FE9EFE2FFE637140140130504C005460C
:1013100093050020EFF0EFFF130504C00546930589
:101320000010EFF00FFF130504C0014693050020E5
:10133000EFF02FFE014693050010130504C0EFF0F7
:101340004FFD6FE03FE5EFE2BFE2371401401305C8
:1013500004C0014693050020EFF0AFFB130504C065
:10136000054693050010EFF0CFFA054693050020DF
:10137000130504C0EFF0EFF96FE0DFE1EFE2BFDD4E
:10138000B71401402A8A0144930A0008138904C053
:10139000A14933D68A4033764601930500204A8519
:1013A000EFF02FF70546930500104A85EFF06FF632
:1013B0000146930500104A850504EFF08FF5E31A06
:1013C00034FD138504C0054693050010EFF06FF45B
:1013D000014693050010138504C0EFF08FF36FE012
:1013E000DFDAEFE2FFD82A84293F13058007793737
:1013F0000145693722855937B9376FE0BFD9EFE228
:101400003FD72A84FD3D130580078D3F1305000457
:10141000B5372285A537053F6FE0DFD7EFE25FD50F
:101420001365050B2E84753F1355440013650501A4
:101430004D3F1375F40075376FE0DFD5EFE25FD3F2
:101440000144214981452285D13F9304000801458B
:10145000FD147537EDFC05041374F40FE31424FF39
:101460006FE05FD3EFE2DFD02D3D1305E00A953F3B
:101470001305500DBD3713050008A5371305800A65
:101480008D371305F003B13F1305300D993F01452A
:10149000893F13050004B1371305100A9937130566
:1014A000800C81371305A00D2D3F49451D3F1305C5
:1014B0001008053F1305F00C2D371305900D153757
:1014C0001305100F393F1305B00D213F130500031D
:1014D000093F1305400A31371305600A1937130510
:1014E000D00801375145F53D1305F00ADD3DB93708
:1014F0006FE05FCAEFE2DFC7797185450945EFF01C
:101500006FFE85451145EFF00FFCE1473ECE3715E4
:1015100001409307000C4C08231AF10013050580C5
:101520008D47370400403ECCEFF08FD213050440C6
:10153000EFF0BF9D930770043EC495679387F7E172
:101540002C00130504403EC623080100EFF06FFB9A
:101550000810EFF05F96C167938707060C1013051C
:1015600004403ED02314010223130102EFF0FF8058
:101570000C1013050440EFF0DF8885451305044087
:10158000EFF09F9545616FE0FFC0EFE27FBEAA8557
:101590003705004013050540EFF07F986FE09FBFCF
:1015A000EFE21FBDAA853705004013050540EFF0A7
:1015B0007F976FE03FBEEFE2BFBBB747000083A558
:1015C0008726EF105057B747000083A58728EF20E4
:1015D0008018B747000083A5C728EF10301FEF2001
:1015E00040794205418155376FE0DFBAEFE25FB8DD
:1015F000B747000083A58726EF10F053B7470000D8
:1016000083A58728EF202015B747000083A5C728AA
:10161000EF10D01BEF20E0754205418151376FE09C
:101620007FB7EFE2FFB4056501118545130505801D
:10163000EFF06FE937340140130504C0EFF0FF8C81
:1016400089679387F7C13ECA4C08A547130504C0B4
:101650003ECC230E0100EFF0CFEA05468545130589
:1016600004C0EFF03F890945EFF04FCB85471307E2
:10167000901268003EC82316E1002307F100EFF046
:101680004FCA130504C08545EFF0FF8A8545130551
:1016900004C0EFF07F8405616FE0DFAF83A7C180F6
:1016A00037177A0013070720B3D7E70293F7F70F2E
:1016B0002381F1861307803EB387E7022390F186EA
:1016C0008280B7F700E023A0070003D701862382BA
:1016D0000700A3820700238307003305A702A38323
:1016E0000700054798C337F700E05C43E37FF5FE4A
:1016F00082803708100001117D183377B80026CAA0
:101700003378D80093D4450113D34601131E370014
:101710004EC61357D5010E089357D60193F4F47FA4
:101720001373F37F06CE22CC4AC893D9F50193DE1A
:10173000F6013367C701131F350033E80701931F14
:101740003600338E64406380D9196356C013630436
:10175000031CB70680009307F07F3368D800638FBF
:10176000F4369307800363C0C735FD4763CDC74791
:10177000130500023305C541B3D7CF01B316A80046
:101780003399AF00DD8E33392001B357C80133E9F7
:1017900026011D8F33092F41B3372F013306F74040
:1017A0009317860063D40724370780007D173374AE
:1017B000E600630C042C2285EF20B020130785FF80
:1017C00093070002998FB357F9003316E400D18FC5
:1017D0003319E9006341972A330597401306150032
:1017E0007D47634DC73813070002118FB356C900F8
:1017F0003319E9003397E700558F333920013369F6
:10180000270133D6C70081449377790081CF1377BE
:10181000F90091476308F70013074900333927019E
:101820004A963A899317860063D6071C13851400DD
:101830009307F07FCE856304F520B70780FFFD177F
:10184000F18F9398D70113593900A607B3E82801FF
:10185000B1831375F57F9396C7005205F240624439
:10186000B182FE05C98ECD8ED2444249B249468529
:10187000B68505618280631E0E0A138314001373FC
:10188000E37F63170322B367E701B368F801639D41
:10189000041A63870740638608443309FF41B3078E
:1018A000074133362F013386C7409317860063D62E
:1018B000074C3389EF41B307E84033B62F01338635
:1018C000C740F68991B76350C00F6300030CB70699
:1018D00080009307F07F3368D800638AF43A930757
:1018E000800363CBC713FD4763DFC73513090EFEC3
:1018F00093070002B3562801630AFE00130900048F
:101900003309C94133192801B3EF2F013339F001ED
:101910003369D90031A2B367F801638A071C9307C2
:10192000FEFF638C07389306F07F6309DE1A3E8E54
:101930000DBDB305934063910422B367E70163874C
:1019400007329387F5FF638107449306F07F638C2A
:10195000D520BE859307800363CCB72AFD4763CFAC
:10196000B73C930700028D8F3319F700B356BF00C1
:10197000B317FF003369D900B337F0003357B7000E
:101980003369F9003308E84041ACB367F80163807C
:1019900007349307FEFF638A07209306F07F6308EE
:1019A000DE2E3E8E2DBF631E0E149386140093F719
:1019B000E67F63910734B367E7016395042C638086
:1019C000073EB367F801638E07303309FF01B307A1
:1019D0000701333FE9013386E7019317860063D798
:1019E0000700B70780FFFD177D8E85449377790048
:1019F000E39F07E09317D60193583900B3E8F80046
:101A0000935736001307F07F638DE404B207B18368
:101A100013F5F47FCE8581B53369F80133392001A0
:101A20007A99B337E9013386E70093178600E3DF3D
:101A300007FA85049307F07F6396F418CE851305A3
:101A4000F07F8147814801BDC1EB6384083A93165A
:101A500036009317D8018D82B3E8D700F6899357E3
:101A60003800B3E7F800F9DB81451305F07FB707CD
:101A700008008148CDB3370680FF7D167D8E9377B1
:101A80007900998CE39507D8B5B74A85EF20607344
:101A900013078501FD47E3D5E7D2130685FFB3178A
:101AA000C900014905BB3369F80133392001DDB1B3
:101AB0003309FF413306074133342F013304864095
:101AC0009317840063CD0724B3688900E39308CE9D
:101AD0008147814981441DBFE39808F80E0593179B
:101AE000D7010D81B3E8A700935737009DBF0E05BE
:101AF0009317D7010D81B3E8A700F28493573700FD
:101B000011B73305934063820412B7068000930730
:101B1000F07F558F630DF32E9307800363CBA720CF
:101B2000FD4763C3A72A93070002898F3319F70083
:101B3000B356AF00B317FF003369D900B337F000D5
:101B40003357A7003369F9003A987E99B337F90102
:101B5000338607019A84D1BDB70680009307F07FD2
:101B6000558FE319F3DE931736008D839318D80150
:101B7000B3E81701F68993573800E5B5130715FE4A
:101B80009306000233D7E700630AD60093060004E9
:101B90003386C6403396C7003369C9003339200104
:101BA0003369E9000146814491B53309FF01B30768
:101BB00007013336E9013E96931786008544E3D743
:101BC00007E28944B70780FFFD17F18F135719000B
:101BD00013791900336927019398F70133E9280134
:101BE00013D6170015B113090EFE93070002B35662
:101BF0002801630AFE00130900043309C94133199F
:101C00002801B3EF2F013339F0013369D90059B6F8
:101C10003369E7013339200133892F41B3B72F01ED
:101C20003306F8409A84F689A5BEB367E70163825C
:101C300007189307F5FF6384071C9306F07F63047E
:101C4000D5123E85D1BD93070002B387C741B316B5
:101C5000F8003399FF0033D6CF01D18E33392001FC
:101C6000B357C80133E926013E975DBB9317360091
:101C70008D839318D801B3E81701AE8493573800C9
:101C8000F68949B3EDC33369F801E31F09DC0E059A
:101C90009317D7010D81B368F50093573700D1B37F
:101CA0006381080E931636009317D8018D82B3E82E
:101CB000D700F6899357380091BB3309FF41B3072A
:101CC0000741333F2F013386E7418544D1BC0E05E0
:101CD0009317D7010D81B368F500F284935737004D
:101CE00015B30E059317D7010D81B3E8A7009357DD
:101CF000370029BB9307F07FE382F6D43309FF0155
:101D00003336E901B3070701B2979398F7011359E6
:101D1000190033E9280113D61700B684C1B93389F5
:101D2000EF413307E84033B62F013304C740F6894B
:101D300049B43369E7013339200101BD938705FEBA
:101D400093060002B357F700638AD5009306000498
:101D5000B385B6403317B700336FEF003339E00176
:101D60003369F90055BD931736008D839318D80158
:101D7000B3E8170193573800EDB1B368C900E39792
:101D800008C68147814959B13389EF41B307E8401B
:101D900033B62F013386C740F689854411B49316B4
:101DA00036009317D8018D82B3E8D70093573800D7
:101DB000B1B9931636009317D8018D82B3E8D700D6
:101DC000AA84935738003DB9930705FE9306000295
:101DD000B357F700630AD500930600043385A64085
:101DE0003317A700336FEF003339E0013369F9008F
:101DF000A9BB81451305F07FB7070800A9BC3309CB
:101E0000FF01B30707013336F9013E9675B3931608
:101E100036009317D8018D82B3E8D7009357380066
:101E200089B1397193D7450122DC4AD856D22A8923
:101E30001394C50006DE26DA4ED652D45AD05ECEB2
:101E400013F5F77F318093DAF501630B05109307E3
:101E5000F07F630BF514135AD9010E0433648A0022
:101E6000370A8000336A4401131B3900930415C0FC
:101E70000144814B13D846011399C6001378F87FAB
:101E8000B2881359C90093D9F601630E0808930765
:101E9000F07F6300F8041357D6010E093369270158
:101EA000130818C0B70780003367F900931836008D
:101EB000B38404418145BD4733C83A0163E4871ABE
:101EC000972700009387073D0A043E9410403E96F2
:101ED00002863367C9009384148063120710136469
:101EE000240081488945C1BF1306F07F814701471F
:101EF000B207F25062545206B1837E08D18FB3E725
:101F00000701D2544259B259225A925A025BF24BFB
:101F10003A85BE852161828001481306F07FB707AC
:101F200008000147F1B73367C9004DC7630809309E
:101F30004A8532C4EF20E0282246130755FFF547B3
:101F4000930685FF998F3319D900B357F60033E70D
:101F50002701B318D60026959304353F8145A1BFCC
:101F6000336A240163030A0636C632C46306042AB0
:101F70002285EF2000252246B246AA84130755FF8A
:101F8000754A138B84FF330AEA4033146401335AD1
:101F90004901336A8A00331B69011305D0C0B304B9
:101FA00095400144814BF9B5336A240163180A0056
:101FB0002144014B9304F07F894B6DBD228A4A8BEB
:101FC00031449304F07F8D4B75B51144014B81442E
:101FD000854B4DB51364140081488545E9BD1364F4
:101FE00034004A878D45C1BD630A052E8547898F18
:101FF0009306800363DDF632014681470147CDBD7C
:10200000CE868947638DF53A8D47E387F5F085479E
:102010003688E383F5FE1385F43FE357A0FC93F77E
:1020200078006396072893D638009317770063D813
:102030000700B70700FFFD177D8F13850440930746
:10204000E07FE3C3A7EA1316D70193179700B18384
:102050003367D6001376F57F61BDD6865287DA885E
:10206000DE8545B763614723630DEA20DA86FD14F8
:102070005284014B9317870013D388013363F30015
:10208000935E0301B357D403131F0301135F0F01C2
:1020900093D50601139E88003374D4033307FF02DF
:1020A0004204C18D63FBE5009A951386F7FF63EE4A
:1020B000652663FCE526F9179A95998D33D7D503E4
:1020C000C206C182B3F5D5033306EF02C205D58D32
:1020D00063FBC5009A959306F7FF63E6652463F4F6
:1020E000C52479179A95C20741645D8F9307F4FF61
:1020F0003375F70093580701935F0E01B377FE0025
:10210000B302F502B386C540B383F80293D502014A
:102110003386AF021E962E963385F80363737600DE
:102120002295C168FD1893550601337616014206C3
:10213000B3F81201AA95469663E6B6126382B61208
:102140003306CB408D8E333BCB00338B66411385FA
:10215000F43F630C6317B358DB0393550601337BDD
:10216000DB03B3061F03420B33EB6501637BDB002C
:102170001A9B9385F8FF636D6B20637BDB20F91856
:102180001A9B330BDB40B356DB0342064182337BA1
:10219000DB03330FDF02420B33666601637BE6012C
:1021A0001A969385F6FF6367661E6375E61FF91638
:1021B0001A96C208B3E8D8009395080193D2080193
:1021C000C181B38EF5023306E641B385BF0293D6D3
:1021D0000E01B387F202BE95AE96B38F5F0263F431
:1021E000F600C167BE9FC165FD1593D70601ED8E50
:1021F000C206B3FEBE00BE9FF696637FF6091A962E
:102200009387F8FF6369661A6368F619630FF61B14
:10221000BE8893E8180011B54A85EF10907A13072D
:102220005501F145930405022246B246E3DAE5D4AE
:10223000130485FF331A8900014B85B3328532C4FC
:10224000EF10307813075501F146AA87224613058F
:102250000502E3D6E6CEE1173317F6008148E5B96B
:10226000E370CBEE729B3335CB011A95AA9613051A
:10227000F7FF6378D30263E6B6106382D5102A872E
:10228000C1B5E3651BDF93551B009316FA01135488
:102290001A00CD8E7E0BF9BBE31DF6F7E38F06D651
:1022A000B9BFE31ED3FCE378CBFD2A8751BD93F77A
:1022B000F8009146E389D7D693B7C8FF93864800C4
:1022C00093C717008D823E978DB381468547E34CB7
:1022D000A0FEFD58E31C05D0930410C0854713856C
:1022E000E441B316A70033D6F8003395A800D18E89
:1022F0003335A000C98E13F676003357F70001CEB0
:1023000093F7F60011466388C70093874600B3B67B
:10231000D7003697BE869317870063D80704054613
:1023200081470147F1B636877DBBB28779B3FD4659
:10233000E3D7F6FA0556098E930600023356C70016
:102340006388D7009387E443B317F700B3E8F80036
:10235000B3361001D18E13F67600814701CE93F784
:10236000F60011460147E392C7FA93179700131638
:10237000D701B18313D73600518F014695BEE37064
:10238000CBF0729B3335CB011A957917AA964DBBCA
:10239000AE88C5BBAE8631BD93171E0033BEC701E4
:1023A00072931A96F9183E8EE315F6E7E307DEC638
:1023B00093E818009DB1BE88E30AF6FF99BD368800
:1023C0001306F07F8147014725B6E367DEFCBE8830
:1023D000E310DEFE99B139714AD813D945014ED6C2
:1023E00052D456D29399C50006DE22DC26DA5AD0A2
:1023F0005ECE1379F97F2A8A93D9C90093DAF50161
:10240000630D090E9307F07F6306F9181354D50185
:102410008E09B36934013704800033E489009314D2
:102420003500130919C08149814B13D74601139A0E
:10243000C6001377F77FB285135ACA0013DBF60183
:10244000630B07109307F07F6303F7049357D601DC
:102450000E0A33EA4701130717C0B7078000B367B6
:10246000FA00931536003A99814833C76A01BD4690
:102470003A851308190063E836171726000013067B
:1024800066E58A09B29983A60900B2968286B36787
:10249000CA001309F97F6399071293E9290081455E
:1024A0008948E1B701479307F07F3704080081446A
:1024B0003204D20731807E075D8C598CA285F250A0
:1024C000625426854259D254B259225A925A025B1A
:1024D000F24B216182805A853E84AE84C68B894747
:1024E000638DFB0E8D47E38FFBFA85472A87639E3A
:1024F000FB3881470144814465BF33E4A90061C0D2
:1025000036C632C4638C092A4E85EF10904B2246A2
:10251000B246AA87130755FF7544938487FF198C29
:10252000B399990033548A0033643401B3149A0088
:1025300013D746011309D0C0139AC6001377F77F4B
:102540003309F9408149814BB285135ACA0013DB24
:10255000F601E31907EEB367CA00B1C7630F0A2299
:10256000528532C4EF10F04522462A87930655FF64
:10257000F547930587FF958F331ABA00B357F600D6
:10258000B3E74701B315B6003309E9401309D9C0D1
:102590008148E1BD33E4A90001ECA149814413095C
:1025A000F07F894B59B593E919008145854875BD80
:1025B0004E84AA84B1491309F07F8D4BBDB5914972
:1025C00081440149854B95B593E93900D2878D48FF
:1025D00069BD89475685E397FBF02A879307F07F0B
:1025E00001448144F1B5C16E1386FEFF93D6040108
:1025F00013DE0501F18CF18D338695023383B6022B
:102600009358060133059E021A95AA98B382C60311
:1026100063F36800F692C16F1383FFFF33F5670021
:1026200093D30701B3F76800C207337366003E9384
:102630003306950293D80801B387A602135F0601FB
:10264000B3849302BE94FA94B38E760263F3F400DB
:10265000FE9E416A9307FAFF935F0401B376F4008C
:10266000B3F9F4007D8EC1803384D502C209338F63
:10267000D401B299CE98B307DE02935E0401B3850C
:10268000BF02AE97BE9E330EFE0363F3BE00529EA2
:10269000C1679385F7FF33F6BE006D8C4206229624
:1026A00093DE0E01B305D502769E3385AF0213D4B7
:1026B0000501B386D302AA96A296B38FF30363F300
:1026C000A600BE9F41657D15B3F7A600C2076D8DBC
:1026D000AA97B3855800B3B93501FA97B2953384F8
:1026E000370133B6C500B30EC4013385CE00333491
:1026F0003401B3B7E701C18F33BECE0113D4060155
:102700003336C5003E943366CE00939495003294E0
:102710007E94B3E46400260493567501B3349000AC
:10272000DD8193179500CD8C558CDD8C931774004B
:1027300063DB070093D7140085889316F401DD8CC2
:10274000D58C058042899307F93F6359F00893F6C9
:10275000740081CE93F6F40011466388C600938618
:102760004400B3B496002694B6849316740063D8DC
:102770000600B70700FFFD177D8C930709409306FD
:10278000E07F63CFF60E93D634009314D401260471
:10279000D58C318093F7F77F21BB328532C4EF109F
:1027A000502293065501F147130705022246E3D153
:1027B000D7DC6115B317A6008145F9B3EF1070207F
:1027C00013075501F145930705022246B246E3D5AA
:1027D000E5D461153314AA00814499BB85469D8ECA
:1027E000B1E71309E941B3972401B3D4D4003319F5
:1027F0002401B337F000B3649900DD8C93F77400C3
:10280000B356D40081CF93F7F40011466388C70014
:1028100093874400B3B49700A696BE84939786002E
:1028200063D8070485470144814459B113068003E6
:10283000E341D6CC7D46E356D6FA0556B307F640BB
:10284000930500023356F4006387B6001309E94389
:10285000B3172401DD8CB3349000D18C93F674004F
:10286000014499CA93F7F40011468146E392C7FAEE
:10287000139496003180F6068D80D58C81470DB972
:102880009307F07F0144814425B142896DBD37072C
:1028900010007D1701113373B70093D84601758F6F
:1028A000935ED60122CC26CA0E0393D445019357DA
:1028B000D5010E0706CE4AC84EC693F8F87F130E10
:1028C000F07F33E7EE0093F4F47F13D4F50133E3A4
:1028D0006700131F3500FD82931E36006380C81900
:1028E00093C61600B38514416305D4126351B01822
:1028F000638B081AB70780005D8F6381C459930703
:10290000800363C4B734FD4763C5B748930700022B
:102910008D8FB3D9BE003318F700B39EFE00336825
:1029200038013357B700B339D00133683801330366
:10293000E340B3090F41B3373F013306F340931728
:10294000860063D30724370980007D193379260177
:10295000630F092C4A85EF10D006130785FF9307F4
:102960000002998FB3D7F9003316E900D18FB399DC
:10297000E9006344972A058F13061700FD4663C5D7
:10298000C63A13070002118FB3D6C9003398E90085
:102990003397E700558F33380001B369070133D609
:1029A000C700814493F7790081CF93F6F9009147EE
:1029B0006388F6009386490033B836014296B6899B
:1029C0009317860063D6071C138714009307F07FC4
:1029D00005886306F720B70780FFFD17F18F13986E
:1029E000D70193D93900A60733683801B18313772B
:1029F000F77F9396C7005207B1827E04D98EC18EAD
:102A0000F2406244D2444249B2494285B6850561EA
:102A100082806356B00A638A0812B70780005D8F10
:102A20006387C42D9307800363C7B718FD4763D23C
:102A3000B73C138805FE93070002B3590701638A68
:102A4000F50093070004B385B7403317B700B3EE22
:102A5000EE003338D0013368380195A2B367D7014F
:102A60009385148099E393C61600630AD404D1E1D8
:102A70009387140093F7E77F6399071EB367E30119
:102A80003368D701639204166382073C63160842D9
:102A9000131835009316D3011358380033E8060194
:102AA0009357330019A2B367D7016385071A938739
:102AB000F5FF638B073A638CC523BE8589B563999F
:102AC000051C9386140093F7E67FC1EFB367E3011B
:102AD00063900436638D0744B367D7016394074658
:102AE0000E051318D3010D813368A80093573300E6
:102AF0006DA8B385984063970420B367E301638DA5
:102B000007309387F5FF638907401305F07F6383E0
:102B1000A520BE859307800363C2B72AFD4763C81B
:102B2000B73C930700028D8F3318F3003356BF0074
:102B3000B317FF003368C800B339F0003353B30054
:102B40003368380133076740B5ACB367D701638397
:102B500007109387F5FF638F071E6380C52FBE851F
:102B6000D1B59307F07F638BF606FA9E33B6EE017C
:102B7000B307E300B2971398F70193DE1E00B36921
:102B8000D80113D61700B68493F77900E39F07E0C6
:102B90009317D60113D839003368F800A6859357E8
:102BA00036001307F07F6380E506B207B18313F7A1
:102BB000F57F05883DBD3367D7013338E000B309A1
:102BC000E801B3B7E9013386670093178600E3DDB8
:102BD00007FA85049307F07F639CF41805881307B0
:102BE000F07F8147014831B5639107106301083CCC
:102BF000131836009317D701135838003368F800BC
:102C0000368493573700B367F800E9DB01441307B4
:102C1000F07FB70708000148E9BB370680FF7D1643
:102C20007D8E93F77900998CE39107D895B74E85FF
:102C3000EF10205913078501FD47E3D2E7D21306B1
:102C400085FFB397C90081492DB33368D701333865
:102C50000001C5B1131835009317D301135838007C
:102C60003368F800935733002DBFB309DF413309B0
:102C7000E34033363F013309C9409317890063CAE3
:102C8000072033E82901E31508CC8147014431BF0F
:102C9000B385984063810414B70680009307F07FE2
:102CA0003363D3006381F8209307800363CCB7229A
:102CB000FD4763C9B72C930700028D8F3318F300CB
:102CC000B356BF00B317FF003368D800B339F00024
:102CD0003353B300336838011A97B309D801B3B737
:102CE000D9013386E700C684CDB5E31108F2131885
:102CF00035009317D301135838003368F800935701
:102D0000330011B7370580009307F07F3363A300CA
:102D1000E392F8E00E061318D7010D823368C8005D
:102D2000935737003684C5B505179306000233D78D
:102D3000E700630AD600930600043386C640339644
:102D4000C700B3E9C90033383001B369E800014670
:102D500081441DBDB309DF01B307E30033BFE901BF
:102D60003386E701931786008544E3DF07E0894453
:102D7000B70780FFFD17F18F13D7190013F819005B
:102D8000336807019399F701B3E9090113D61700D6
:102D900011B9138805FE93070002B3590701638A2E
:102DA000F50093070004B385B7403317B700B3EEBF
:102DB000EE003338D00133683801A5BE3363E30138
:102DC00033386000B3890E41B3B73E013306F74094
:102DD000C6843684ADB6B367E3016387071893876B
:102DE000F5FF638C071C9306F07F638ED50ABE85C2
:102DF00065BD930700028D8FB3D9BE003318F7006D
:102E0000B39EFE00336838013357B700B339D001A1
:102E1000336838013A9365B3131836009317D70116
:102E20001358380033E8070136849357370095BBB1
:102E3000BDCB3367D701E31B07DC0E051318D301A5
:102E40000D813368A8009357330075BBE30F08E288
:102E5000131836009317D701135838003368F80059
:102E600036849357370091B3B309DF41B307E3408A
:102E7000333F3F013386E7418544D1B41318350011
:102E80009316D3011358380033E8060193573300E3
:102E90009DBBB389EE413306674033B93E01330928
:102EA0002641368475B40E061318D7010D82336897
:102EB000C8009357370081BBB309DF41B307E34034
:102EC00033363F013386C7409317860063D7070A1E
:102ED000B389EE41B3076740B3BE3E013386D741A5
:102EE0003684C9B43363E30133386000FDB313881B
:102EF00005FE93070002B3590301638AF5009307A7
:102F00000004B385B7403313B300336F6F00333819
:102F1000E001336838017DB5B389EE41B3076740FE
:102F2000B3BE3E013386D7413684854409BC1318AD
:102F300036009317D701135838003368F8009357B9
:102F40003700A5B1B309DF01B307E30033BFE901DF
:102F50003386E70193178600E3D807C2B70780FFDF
:102F6000FD177D8E85440DB10E061318D7010D8215
:102F70003368C800935737002DB133E8C900E30622
:102F800008D019B1138805FE93070002B359030155
:102F9000638AF50093070004B385B7403313B30089
:102FA000336F6F003338E001336838013DB30144BB
:102FB0001307F07FB70708002DBCB309DF01B30783
:102FC000E300B3BED9013386D70169BB411137078E
:102FD00080007D1713D8750126C293547501337391
:102FE000A70093F4F40FB376B7004AC01378F80F34
:102FF0001359F50106C622C4FD819A8726854A86A3
:10300000131E3300939E3600B3880441630AB90E41
:103010006350100D630408149307F00F638BF414CE
:10302000B7070004B3EEFE00ED4763C1172993070D
:103030000002B3871741B397FE00B3D81E01B33720
:10304000F000B3E7F800B307FE4013975700635E44
:103050000718370400047D147D8C2285EF1060165C
:103060006D15B317A4006348951A058D1304150058
:1030700013070002018F3397E7003337E000B3D71F
:103080008700D98F814413F7770019C713F7F7002A
:1030900091466303D700910713975700635B0714AA
:1030A00085041307F00F4A866383E4169A07A58305
:1030B00013F5F40FB2402244A6079314750113D5FB
:1030C0009700458D7E0692440249518D41018280D0
:1030D0006399080A138714001377E70F631707141F
:1030E00063900422630D0E1EE3860EFCB307DE41DF
:1030F0001397570063500722B387CE412E8961B7DB
:10310000635C100B630E08089307F00F6383F406EB
:10311000B7070004B3EEFE00ED4763C9171F93071E
:103120000002B3871741B397FE00B3D81E01B3372F
:10313000F000B3E7F800F297139757006357070AB8
:1031400085041307F00F6384E40CB706007E13D7E1
:103150001700FD16858B758FD98F35B7638D0E08D7
:10316000FD18B307DE41E38208EE9307F00FE39DFD
:10317000F4EA630D030801461305F00FB70740009A
:1031800015BF33079840EDE863020E147D176308FE
:1031900007189307F00F6319F80E2E893683D1BFF5
:1031A000638B0E04FD18B307DE01E38708F893076D
:1031B000F00FE393F4F675BF63950808850413F7E1
:1031C000E40F6313071263170510630F0E14E383F4
:1031D0000EEEB307DE0113975700814463570700D3
:1031E000370700FC7D17F98F854413F77700E31F3D
:1031F00007E813D337009307F00FE38CF4F6931727
:103200009300A58313F5F40F4A866DB54A8613051E
:10321000F00F814745B5370700FC7D17F98F13F78D
:103220007700898CE31407E6E9B73304DE4193178E
:10323000540063C3070CE31204E2014601458147D1
:1032400095BD33079840ADC49307F00FE308F8F439
:10325000B7070004336EFE00ED4763CCE70C93071D
:103260000002998FB317FE003357EE00B337F0001A
:10327000D98FF697C284C9B59307F00FE30FF8F022
:10328000B7070004336EFE00ED4763C3E7089306FB
:103290000002998EB316DE00B357EE003337D0002C
:1032A000D98FB387FE40C2842E8945B3854761BB61
:1032B000630E0E067D17B307DE01C284E30E07E638
:1032C0009307F00FE31AF8F8368365B53683C284A6
:1032D0002E8915B7E3040EECE38D0EE869BD638D0E
:1032E0000E022E86B687F9B39307F00FE381F4F24E
:1032F000B307DE018583D5BD3384CE412E89B1BBB2
:10330000E31C0EFCE3890EE62E8949BD854725B5F1
:10331000854741BFE39B07EC0146814761BBB3870B
:10332000CE41C2842E8915B3B68769B33683C28471
:10333000D9B585473DBF3971935775014AD856D2E3
:103340005ECE931A95001359F50106DE22DC26DACB
:103350004ED652D45AD093F7F70F93DA9A00CA8B0D
:10336000638207121307F00F6384E7128E0A370790
:103370000004B3EAEA00138A17F80144014B93D71B
:1033800075019394950093F7F70FA58093D9F501F4
:10339000FDC71307F00F6387E7028E04938717F8C2
:1033A00037070004D98C330AFA408146558C171729
:1033B0000000130727F60A043A941C4033493901E8
:1033C000BA978287130A1AF0F9E88946558C1717BD
:1033D0000000130727F80A043A941C4033493901C6
:1033E000BA97828701491307F00FB707400013957A
:1033F0009700F25062549317770125817E095D8D05
:1034000033652501D2544259B259225A925A025B6D
:10341000F24B216182801307F00F8147C9BFA68A52
:10342000CE8B368B8947630BFB1A8D47E30CFBFA77
:103430008547630AFB0A1307FA0713F91B00635752
:10344000E01293F77A0099C793F7FA0091466383E5
:10345000D700910A93974A0063D90700B70700F88D
:10346000FD17B3FAFA0013070A089307E00FE3C445
:10347000E7FA93976A00A5831377F70F8DBFB9E436
:103480008546A9B763940A021144014A054BC5BD9C
:1034900063990A002144130AF00F094BCDB58D46FC
:1034A00031B73144130AF00F0D4BD1BD56852EC6EE
:1034B000EF0030519307B5FFB39AFA009307A0F8D5
:1034C000338AA7400144014BB24555BD2685EF0024
:1034D000504F1307B5FFB307AA00B394E400138A53
:1034E00067078146E1B513F91B000147814701B722
:1034F0004166139554007D1693570501698E63FA52
:103500009A0AB3D5FA027D1AD68601473388C502D6
:10351000B3F6F602C206558F637B07012A9793869E
:10352000F5FF6368A70A6376070BF9152A97330737
:103530000741B356F7023377F702B38AC6029317EF
:10354000070163FB5701AA971387F6FF63E1A708FA
:1035500063FF5707F916AA97C205B38A5741D58D5D
:10356000B33A5001B3EA5501CA8BF1B58546998E3D
:1035700011C76D4601478147E34BD6E6130AEA09B6
:10358000339A4A01B3D7DA00B33A4001B3E757019F
:1035900013F7770019C713F7F70091466303D700B5
:1035A000910713975700634807029A07A5830147BD
:1035B0003DBD93D61A00B3D5F6021397FA014183A5
:1035C0003388C502B1B7CE8B368B814AA1BDBA868E
:1035D00061B7B685A9BF0547814711BD13F91B0027
:1035E0001307F00F814721B593567501B707800087
:1035F000FD1713D6750193F6F60F1308F00FB3F805
:10360000A7001357F501ED8F1376F60FFD81638444
:1036100006031305F00F6304A60205456383C60085
:103620008280E39FF8FE0145E30CB7FE0545EDFA05
:103630003335100182800545E38D08FC8280054505
:10364000E9DF828093567501B7078000FD1713D616
:10365000750193F6F60F1308F00FB3F8A700135790
:10366000F501ED8F1376F60FFD8163810603630C80
:1036700006018DE211E2B1C3638E08026305B7044F
:1036800005451DE78280F5D779558280E39E08FEC7
:103690006309D60211E2EDD7E314B7FEE342D6FE8A
:1036A00063C7C600E3EE17FD0145E3FDF8FC01E743
:1036B0007D558280F5DD054582800145E39208FC59
:1036C0008280F9DBD1B78146E1BF93567501B70718
:1036D0008000FD1713D6750193F6F60F1308F00F4F
:1036E000B3F8A7001357F501ED8F1376F60FFD81A0
:1036F000638706036309060185EA11EA89EB014540
:10370000639B080082800945F5FFE5DA31A8638CE8
:1037100008026300B704054575D77D5582800945C9
:10372000639808026304D60211E2F5D7E315B7FEE9
:10373000E343D6FE63C7C600E3EF17FD0145E3F39D
:10374000F8FC19E3D9BFF1D905458280E5D3828021
:1037500082808146C5B7797122D4135475014ECE4B
:1037600052CC9319950006D626D24AD056CA5AC8CA
:103770001374F40F93D99900135AF50169C4930790
:10378000F00F6308F40E9397390037070004B3E98C
:10379000E700130414F88144014B13D77501939A81
:1037A00095001377F70F93DA9A0013D9F50145CFF7
:1037B0009307F00F630CF7028E0A130717F8B70789
:1037C0000004B3EAFA003A94014633452A01BD47A2
:1037D000AA869305140063E29710171700001307D9
:1037E00067BB8A04BA949C40BA9782871304F40F8B
:1037F00063980A0C93E424000946C1BF01451307EE
:10380000F00FB7074000B2502254A6075E07A58309
:103810007E05D98F92540259F249624AD24A424BEC
:103820005D8D45618280CA86D689328B8947630166
:10383000FB0A8D47E304FBFC854736856312FB1AC0
:1038400001478147C9B7639E090413D77501939A4D
:1038500095001377F70F91440144054B93DA9A00D2
:1038600013D9F50131F7639D0A0093E4140005466E
:10387000A9BF63930902A1441304F00F094B31BFA0
:103880005685EF0010149307B5FF098CB39AFA0020
:103890001304A4F8014615BFB1441304F00F0D4BF7
:1038A000EDBD4E852EC6EF00D0119307B5FF130472
:1038B000A0F8B399F900098C8144014BB245F1BDE0
:1038C00093E434000D4611B78947D286E313FBF623
:1038D00036851307F00F81473DB741639306F3FF29
:1038E00013D6090193D80A01B3F7D900B3FADA0065
:1038F00033885703B389F80213570801B30A5603F4
:10390000D6994E9733061603637357011A96C1670B
:10391000FD17B376F7003378F800C206C296939984
:10392000660093570701B3393001E982B2979A07CD
:10393000B3E6D900B3E9D7009397490063D90700EC
:1039400013D7190093F71900B369F7002E841307F2
:10395000F4076350E00493F7790099C793F7F900EF
:1039600091466383D70091099397490063D9070073
:10397000B70700F8FD17B3F9F90013070408930718
:10398000E00F63CBE70493976900A5831377F70FE4
:103990009DBD8547B386E74011C76D460147814706
:1039A000E343D6E61307E4093397E9003337E00031
:1039B000B3D7D900D98F13F7770019C713F7F700DA
:1039C00091466303D700910713975700634C070094
:1039D0009A07A583014705BD1307F00F814725B559
:1039E0002E84B5B70547814739BD3707800041119F
:1039F0007D179356750113D87501B377A70093F619
:103A0000F60F935EF5013376B70026C24AC01378ED
:103A1000F80F06C622C41303F00F3E8E3689F684D3
:103A2000139F3700FD8113153600B38806416302EA
:103A3000681093C51500638CBE106354100D63109D
:103A400008106304051EFD18B307AF406386080223
:103A50009307F00F6388F616ED4763C7172913071E
:103A60000002330717413317E500B3571501333709
:103A7000E000D98FB307FF40139757006351071A2F
:103A8000370400047D147D8C2285252F6D15B31716
:103A9000A400634E251B33052541130415001307AD
:103AA0000002018F3397E7003337E000B3D7870078
:103AB000D98F014913F7770019C713F7F70091461B
:103AC0006303D700910713975700635E07149306AB
:103AD00019001307F00F93FE14006386E6169A0789
:103AE000A58393F6F60FA607B240224413D597009C
:103AF000DE069397FE01558D924402495D8D41018A
:103B000082806392080A138716001377E70F631BFE
:103B100007146394062263020F2071D5B307AF40E8
:103B20001397570063550722B307E5410149AE8457
:103B300051B7E30005F0638ABE0AE35410FD930712
:103B4000F00F6381F608B70700045D8D31B7635E3F
:103B50001009630108089307F00F6385F606B7079D
:103B600000045D8DED4763C0171F13070002330784
:103B700017413317E500B35715013337E000D98FEC
:103B8000FA9713975700635C070805091307F00FAE
:103B9000630BE90AB706007E13D71700FD16858B65
:103BA000758FD98F01BF3307D84063950610630D19
:103BB0000F147D176303071A9307F00F6314F810AF
:103BC000AE84328E630F0E06814E9306F00FB70758
:103BD000400011BF39C9FD18B307AF00E38308FAED
:103BE0009307F00FE390F6F8F1BF63990808138983
:103BF00016001377E90F63160712639B0610630321
:103C00000F16E30205EEB307AF0013975700014903
:103C100063570700370700FC7D17F98F054913F735
:103C20007700E31C07E813DE37009307F00FE30B80
:103C3000F9F893179E00A5839376F90F93FE14006D
:103C40005DB593FE14009306F00F814769BD3707F9
:103C500000FC7D17F98F13F777003309A940E31EA5
:103C600007E4D1B73304AF409317540063C3070C84
:103C7000E31C04E0814E81468147B5B53307D84047
:103C8000B5C69307F00FE30EF8F2B7070004336FE1
:103C9000FF00ED4763CDE70C93070002998FB31740
:103CA000FF003357EF00B337F0005D8FB307A70075
:103CB0004289C1BD9307F00FE304F8F0B707000491
:103CC000336FFF00ED4763C2E70893070002998F47
:103CD000B317FF003357EF00B337F000D98FB307A6
:103CE000F5404289AE8449BB854769B3630E0F0630
:103CF0007D17B307AF004289E30507E89307F00F8C
:103D0000E319F8F8328E7DBD328E4289AE8431BF20
:103D1000E3090FEAE30805EA45BD0DCDAE8EB28793
:103D2000D9B39307F00FE300F9F2B307AF0085832F
:103D3000FDB53304E541AE8481BBE31D0FFCE30513
:103D400005E8AE84BDBD854725BD854749BF01490E
:103D5000E39707EC814E814779B3B307E541428988
:103D6000AE8419BBB28741B3328E42897DBD05470F
:103D700035BF13577501370680009307F6FF137799
:103D8000F70F9305E007B3F6A7009357F501014538
:103D900063F4E50099C3828082809307E0097D5532
:103DA000E3EBE7FE93055009B3E7C60063D7E500F0
:103DB0001307A7F63395E7008280130560093307E0
:103DC000E54033D5E7008280411106C622C426C2F1
:103DD0000DCD9357F54133C4A7001D8CAA842285CD
:103DE000CD269307E0093387A74093076009FD803C
:103DF00063CCE702A1469377F70F63D5A600611560
:103E00003314A4002604258021A081448147014465
:103E1000260413559400B2402244DE07FE045D8D53
:103E2000458D9244410182809307900963DDE7004C
:103E30009307B5019546B317F400898E3354D40027
:103E4000B337F0005D8C954763D6A7009307B5FFA5
:103E50003314F400B70600FCFD1693777400337634
:103E6000D40085C39377F4009145638CB7001106A5
:103E70009317560063D707009307F009758E3387B1
:103E8000A7401314660025809377F70F51B7B367E7
:103E9000B500A1C7411122C426C206C62A84AE8439
:103EA000A9C52E85392E1307E00B098F9306B5FFA0
:103EB0009307B50163C2060CB316D400814793057E
:103EC0005002898DD58F938605FEB337F00063C10C
:103ED000060C33D4D4005D8C05A8014501472605A6
:103EE0009317770125815D8D8280E12CAA871307C6
:103EF000E00B13050502098F9306600963D2E606FD
:103F000093079009E3C4E7FA9307500263D6A7002A
:103F10009307B5FD3314F400B70600FCFD161376C5
:103F20007400B377D40011CE3D881146630BC400F2
:103F3000910713965700635606001307F00BF58F91
:103F4000098F1395670025811377F70FB24022443C
:103F5000260593177701258192445D8D410182806A
:103F600093068002E1171377F70F63DDA60233157E
:103F7000F40026052581D9BFFD469D8E13561400F9
:103F80003356D600B396F400D18EB317F40005BFB4
:103F9000FD4686048D8EB394D4003354B400458C12
:103FA0005D8C9DB71315940025814DB7135775018E
:103FB0001377F70F41119307170022C426C2131479
:103FC000950006C693F7E70F25809354F50185C742
:103FD00093573400130707387604B2075207B183AA
:103FE0001395F401D98FC98FB2402285224492449F
:103FF000BE854101828005EB39C42285D922A947BB
:1040000063C6A7042D47098F930755013357E40072
:104010003314F4009317C70013079038098FB18346
:104020001377F77F5DBF01CC13573400B707080043
:10403000D98FB2077604B1831307F07F79BF1307D6
:10404000F07F814759BF0147814741BF130755FFA3
:104050003317E40001447DBF93D645019397C50013
:1040600093F6F67FB183138616008E071357D5019A
:104070001376E67FFD815D8F9318350035CE13886A
:1040800006C89307E00F63DD07018147139597008A
:104090009306F00FDE062581FE05558D4D8D82803D
:1040A0006355000B931765000E07B337F000D98FE7
:1040B00093D8D801B3E7170113F77700630107100E
:1040C00013F7F70091466303D70091073707000401
:1040D0007D8F75C7130718001306F00F9376F70F3F
:1040E000E305C7FA9A07A58313959700DE06258195
:1040F000FE05558D4D8D8280B367170199EE85CFF2
:1041000095479A07A5831395970093F6F60FDE0659
:104110002581FE05558D4D8D8280A5DBB7074000BA
:10412000139597009306F00FDE0681452581FE0565
:10413000558D4D8D82808147139597008146DE060F
:104140002581FE05558D4D8D8280A5576348F80465
:10415000F94737068000B38707417D45598E635183
:10416000F504795733070741130500023357E6007A
:104170006388A700938626CAB316D600B3E8D80092
:10418000B3371001D98F13F77700014815FB139748
:1041900057008546E34807F48146A5B781468DB7A9
:1041A000938626C83397D8003337E000B316D6007D
:1041B000B3D8F800B367D700B3E7F800E9B7C28611
:1041C00089B7C167637EF5029307F00F13070002FA
:1041D00063ECA700970700009387C71FAA9703C542
:1041E00007003305A740828021819707000093874D
:1041F000671EAA9703C5070061473305A740828061
:10420000B7070001636EF50061819707000093878F
:10421000671CAA9703C5070021473305A740828082
:104220004181970700009387E71AAA9703C5070003
:1042300041473305A74082800000C2420000164378
:104240009A99993E6F12033A6666E63ECDCCCC3E13
:10425000000080BF000035C3000000C0000048C35C
:10426000CDCC4C3D0000F0410000344300007A44C6
:104270001F85EB51B81E1940000000000000F03F00
:1042800000002041000020C10000FA440000FA4371
:10429000D4DDFFFF58DCFFFF68DDFFFF70DDFFFFAF
:1042A00068DDFFFF88DCFFFF68DDFFFF70DDFFFFDB
:1042B00058DCFFFF58DCFFFF88DCFFFF70DDFFFFED
:1042C000CADDFFFFCADDFFFFCADDFFFF88DCFFFF9D
:1042D00016E3FFFF08E2FFFF08E2FFFF06E2FFFF31
:1042E0000EE2FFFF0EE2FFFFD4E1FFFF06E2FFFF59
:1042F0000EE2FFFFD4E1FFFF0EE2FFFF06E2FFFF49
:1043000002E3FFFF02E3FFFF02E3FFFFD4E1FFFF51
:10431000E0F1FFFF06F1FFFFDAF1FFFF0EF1FFFF13
:10432000DAF1FFFFD4F0FFFFDAF1FFFF0EF1FFFF3C
:1043300006F1FFFF06F1FFFFD4F0FFFF0EF1FFFFD4
:1043400014F1FFFF14F1FFFF14F1FFFFD4F0FFFFA2
:10435000C6F0FFFFC6F0FFFF9AF1FFFF76F2FFFF06
:104360009AF1FFFF94F0FFFF9AF1FFFF76F2FFFF53
:10437000C6F0FFFFC6F0FFFF94F0FFFF76F2FFFFED
:10438000D4F0FFFFD4F0FFFFD4F0FFFF94F0FFFF65
:104390004AF5FFFF98F4FFFF98F4FFFF96F4FFFF44
:1043A0009CF4FFFF9CF4FFFF6CF4FFFF96F4FFFF0B
:1043B0009CF4FFFF6CF4FFFF9CF4FFFF96F4FFFFFB
:1043C00038F5FFFF38F5FFFF38F5FFFF6CF4FFFF0E
:1043D00000010202030303030404040404040404AC
:1043E000050505050505050505050505050505057D
:1043F000060606060606060606060606060606065D
:10440000060606060606060606060606060606064C
:10441000070707070707070707070707070707072C
:10442000070707070707070707070707070707071C
:10443000070707070707070707070707070707070C
:1044400007070707070707070707070707070707FC
:1044500008080808080808080808080808080808DC
:1044600008080808080808080808080808080808CC
:1044700008080808080808080808080808080808BC
:1044800008080808080808080808080808080808AC
:10449000080808080808080808080808080808089C
:1044A000080808080808080808080808080808088C
:1044B000080808080808080808080808080808087C
:1044C000080808080808080808080808080808086C
:1044D00000000000000000000102030406070809B4
:1044E000000000000102030401020304060708099A
:1044F000010000000000C2420000164300A24A046E
:0845000002040608000000009F
:00000001FF
